:100000000C94AE040C94D6040C94D6040C94D60430
:100010000C94D6040C94D6040C94D6040C94D604F8
:100020000C94D6040C94D6040C948D080C94FF0800
:100030000C94D6040C94D6040C94D6040C94D604D8
:100040000C94D6040C94D6040C94D6040C94D604C8
:100050000C94D6040C94D6040C94D6040C949C0BEB
:100060000C94D6040C94D6040C94D6040C94D604A8
:100070000C94D6040C94D6040C94D6040C94D60498
:100080000C94D6040C94D6040C94D6040C94D60488
:100090000C94D6040C94D6040C94D6040C94D60478
:1000A0000C94D6040C94D6040C94D604F0F89C8ED0
:1000B0008783878E9CF8F00000FEFF030303030391
:1000C000070EFCF80000FEFF0303030303070EFC0A
:1000D000F80000FFFF00000000000000FFFF00002C
:1000E000FEFF8383838383C7EE7C380000F8FC0E19
:1000F00007030303070EFCF800003F7FE0C0808089
:10010000C0E07F3FFFFF01010101010101FFFF008E
:1001100000FFFF0C0C0C0C1C3E77E3C100007FFFBE
:10012000C0C0C0C0C0E0703F1F00001F3F70E0C0F3
:10013000C0C0E0703F1F00007FFFC1C1C1C1C1E36B
:10014000773E1C00001F3F70E0C0C0C0E0703F1F42
:10015000000000000001FFFF01000000D5F08D1439
:10016000A1C881CFD9F1AF20000101010101010037
:100170000000010100010001010000000101010176
:100180000101010100010101000100010100000065
:10019000010001000100000001000000000100005A
:1001A0000001010100010101010101010001010142
:1001B0000000000100010101000101010101010134
:1001C0000101010100010001010001010100010123
:1001D0000100010001000101010101010001010113
:1001E0000000010101000001010100010001000106
:1001F00001010101010001010100010000000100F5
:1002000000010000000101010001010101010001E4
:1002100000010000010101000000010001010000D7
:1002200001000100010101010101010101010101C0
:1002300001000001000101000101010101010101B2
:1002400001010101000100000100000101010001A4
:100250000101000001010000000101010001000195
:100260000101000000010000000101010000010087
:100270000100000101010001000100010100010075
:100280000100010101000001000100000101010065
:100290000001000100000001000000010101000157
:1002A0000101010100000100000000010100000146
:1002B0000101000001000100010101010100010133
:1002C0000100000100010000010001000100010027
:1002D0000100000100000001010100010101010114
:1002E0000100010001000101010001010001010004
:1002F00001010100010001000100000100000001F6
:1003000001010000000100000101010101000101E3
:1003100001000000000000010101010101010100D4
:1003200001010101010101010100000000000000C4
:1003300001010101010001000100000100010000B4
:1003400001000001000001000000010001000000A8
:100350000100000100010001000101010000000096
:100360000000000001010001000101010101010183
:100370000000010101000001000100000001000077
:100380000101010101010000000101010101010160
:100390000001000101010101010001010100000053
:1003A0000100000000010000000101010001010145
:1003B0000001010001010101010101010001010130
:1003C0000001010001010101000101000001000024
:1003D00001010001010101000101080B00020202FC
:1003E00001000904000001020200000524001001C0
:1003F0000524010101042402060524060001070565
:10040000810310004009040100020A0000000705F2
:1004100002024000000705830240000004030904B3
:1004200012010002EF020140412336800001010267
:10043000030141726475696E6F204C4C4300417238
:100440006475696E6F204C656F6E6172646F000138
:100450000204081020408000000000003E5B4F5B5B
:100460003E3E6B4F6B3E1C3E7C3E1C183C7E3C1857
:100470001C577D571C1C5E7F5E1C00183C1800FF3B
:10048000E7C3E7FF0018241800FFE7DBE7FF304869
:100490003A060E2629792926407F050507407F0563
:1004A000253F5A3CE73C5A7F3E1C1C08081C1C3E5A
:1004B0007F14227F22145F5F005F5F06097F017F48
:1004C000006689956A606060606094A2FFA29408EB
:1004D000047E040810207E201008082A1C08081C2E
:1004E0002A08081E101010100C1E0C1E0C30383E6E
:1004F0003830060E3E0E06000000000000005F00CF
:10050000000007000700147F147F14242A7F2A129A
:100510002313086462364956205000080703000080
:100520001C2241000041221C002A1C7F1C2A0808B2
:100530003E080800807030000808080808000060C5
:10054000600020100804023E5149453E00427F40B1
:100550000072494949462141494D331814127F1010
:1005600027454545393C4A4949314121110907365A
:1005700049494936464949291E00001400000040F7
:1005800034000000081422411414141414004122F1
:10059000140802015909063E415D594E7C121112A0
:1005A0007C7F494949363E414141227F4141413E9C
:1005B0007F494949417F090909013E414151737F02
:1005C0000808087F00417F41002040413F017F082B
:1005D0001422417F404040407F021C027F7F04087C
:1005E000107F3E4141413E7F090909063E415121AC
:1005F0005E7F09192946264949493203017F0103D3
:100600003F4040403F1F2040201F3F4038403F6355
:100610001408146303047804036159494D43007FAF
:100620004141410204081020004141417F04020180
:100630000204404040404000030708002054547822
:10064000407F284444383844444428384444287F70
:10065000385454541800087E090218A4A49C787FCA
:100660000804047800447D40002040403D007F1095
:1006700028440000417F40007C047804787C080412
:1006800004783844444438FC1824241818242418C6
:10069000FC7C08040408485454542404043F4424B3
:1006A0003C4040207C1C2040201C3C4030403C44CE
:1006B000281028444C9090907C4464544C4400088A
:1006C00036410000007700000041360800020102B8
:1006D00004023C2623263C1EA1A161123A40402080
:1006E0007A385454555921555579412154547841FB
:1006F000215554784020545579400C1E52721239BD
:100700005555555939545454593955545458000075
:10071000457C410002457D420001457C40F0292492
:1007200029F0F0282528F07C545545002054547CAD
:10073000547C0A097F493249494932324848483293
:10074000324A4848303A4141217A3A4240207800C2
:100750009DA0A07D39444444393D4040403D3C2467
:10076000FF2424487E4943662B2FFC2F2BFF0929A9
:10077000F620C0887E090320545479410000447D4E
:10078000413048484A32384040227A007A0A0A7298
:100790007D0D19317D2629292F2826292929263042
:1007A000484D4020380808080808080808382F1065
:1007B000C8ACBA2F102834FA00007B000008142AB5
:1007C000142222142A14089500220095AA0055002C
:1007D000AAAA55AA55AA000000FF00101010FF0099
:1007E000141414FF001010FF00FF1010F010F0148C
:1007F0001414FC001414F700FF0000FF00FF141491
:10080000F404FC141417101F10101F101F141414DC
:100810001F00101010F0000000001F101010101F1B
:1008200010101010F010000000FF10101010101029
:10083000101010FF10000000FF140000FF00FF0068
:10084000001F10170000FC04F414141710171414E0
:10085000F404F40000FF00F714141414141414F733
:1008600000F7141414171410101F101F141414F48C
:10087000141010F010F000001F101F0000001F14D3
:10088000000000FC140000F010F01010FF10FF1426
:100890001414FF141010101F00000000F010FFFFD0
:1008A000FFFFFFF0F0F0F0F0FFFFFF00000000009E
:1008B000FFFF0F0F0F0F0F38444438447C2A2A3EA5
:1008C000147E02020606027E027E026355494163DF
:1008D0003844443C04407E201E2006027E020299D9
:1008E000A5E7A5991C2A492A1C4C7201724C304A72
:1008F0004D4D303048784830BC625A463D3E4949FB
:1009000049007E0101017E2A2A2A2A2A44445F44A2
:100910004440514A444040444A51400000FF0103D2
:10092000E080FF000008086B6B083612362436069C
:100930000F090F06000018180000001010003040CA
:10094000FF0101001F01011E00191D1712003C3C90
:100950003C3C0000000000002318DB1811241FBEDF
:10096000CFEFDAE0DEBFCDBF11E0A0E0B1E0E6EE10
:10097000F8E302C005900D92AC3DB107D9F726E02F
:10098000ACEDB1E001C01D92AA3DB207E1F714E061
:10099000CDEAD4E004C02197FE010E945B1ACC3A54
:1009A000D107C9F70E94D80D0C94661C0C94000066
:1009B00020914D02211103C08FEF9FEF08955FB783
:1009C000F89422E02093E9002091F20030E0121622
:1009D000130614F421E030E0422FFC0184E641507C
:1009E00038F0289880934C029091F1009193F7CFC2
:1009F0002115310521F08091F200882319F05FBFA5
:100A0000C90108958BE68093E800F9CF2FB7F894D9
:100A100083E08093E9009091E800892F807295FF30
:100A200004C09091F20080E4891B2FBF0895CF93FA
:100A3000DF931F92CDB7DEB76983DC01ED91FC91A6
:100A40000280F381E02D41E050E0BE016F5F7F4FF7
:100A500009950F90DF91CF91089583E08093E9008D
:100A60008091F200882319F08AE38093E8000895CA
:100A70000E94060590E00895CF93DF931F92CDB7B3
:100A8000DEB7FC018485958597FD05C02FEF3FEF0C
:100A9000358724870BC0CE0101960E94D8040197A8
:100AA00019F4898190E002C08FEF9FEF0F90DF91E2
:100AB000CF9108950F931F93CF93DF931F92CDB7DC
:100AC000DEB78C01FC018485958597FF0EC0CE01B1
:100AD00001960E94D804019719F4898190E002C020
:100AE0008FEF9FEFF80195878487F80184859585BE
:100AF0000F90DF91CF911F910F910895FC01848594
:100B0000958597FD0BC09FB7F89482E08093E9002C
:100B10008091F2009FBF90E0019608959FB7F894EE
:100B200082E08093E9008091F2009FBF90E00895F9
:100B3000009769F0FC0101900020E9F73197AF01BF
:100B4000481B590BBC0184E596E00C94E60B80E051
:100B500090E008958F929F92AF92BF92CF92DF92D2
:100B6000EF92FF920F931F93CF93DF936C017B0162
:100B70008A0180910B01882309F45CC080914D02A9
:100B8000882309F457C080914B0280FF05C08091F3
:100B9000E00082608093E000E801B12C8AEFA82E8B
:100BA00093E0892E2AE3922E209711F4BB20D9F1ED
:100BB0000E94060581110AC0AA94AA20D9F161E019
:100BC00070E080E090E00E94620BEECF282F30E0D2
:100BD000C217D3070CF48C2F9FB7F8948092E900CA
:100BE0002091E80025FF1DC0282F30E0C21BD30B49
:100BF000F701815020F041914093F100FACFE20ECD
:100C0000F31EBB2019F09092E8000AC08091E80022
:100C100085FD07C09092E800BB24B394209709F0AB
:100C2000B12C9FBFC1CF5D9884E680934A02101615
:100C3000110644F081E090E0F6019383828380E026
:100C400090E001C0C801DF91CF911F910F91FF90FB
:100C5000EF90DF90CF90BF90AF909F908F900895CE
:100C60000F931F93CF93DF938C01EB0180914E067E
:100C700090914F06009739F020915006309151061F
:100C80002617370768F5BE016F5F7F4F0E94821BF2
:100C9000009789F090934F0680934E06D0935106AB
:100CA000C09350062091520630915306232BC1F475
:100CB000FC01108215C080914E0690914F0600975E
:100CC00011F00E94F91A10924F0610924E061092DF
:100CD00053061092520610925106109250060BC005
:100CE000D0935306C0935206B80180914E0690915E
:100CF0004F060E945F1C8EE496E0DF91CF911F911A
:100D00000F910895EEE4F2E0A0E0B8E000800EBCA0
:100D10008111012C1197A0FDFDCF0192B9F70DB4FF
:100D2000089520915E06282329F490915D0698236A
:100D300081E009F480E008950C949805DF92EF9229
:100D4000FF920F931F93CF93DF937C01D22E8B01E1
:100D5000040F111DEB0177FF02C0C0E0D0E0C80115
:100D60000134110514F080E490E0C817D9074CF461
:100D70002D2DAE01B70188E596E00E94680C219602
:100D8000EECFDF91CF911F910F91FF90EF90DF9009
:100D90000895EF92FF920F931F93CF93DF93EC018F
:100DA0008B01E42EF22E6034710518F421E00E94CC
:100DB000280CB8016F0D711D615071096034710507
:100DC00028F421E04E2DCE010E94280C21E04F2D69
:100DD000B801CE010E949E06CE018E0D911D21E02C
:100DE0004F2DB8010197DF91CF911F910F91FF9087
:100DF000EF900C949E062F923F924F925F926F92CB
:100E00007F928F929F92AF92BF92CF92DF92EF929A
:100E1000FF920F931F93CF93DF93EC018B017A0125
:100E20006901C61AD70AD7FE03C0D194C194D1086C
:100E30005701AC1ABD0AB7FE03C0B194A194B10822
:100E4000AC14BD0454F49E2D8F2D7901292F382F19
:100E50009C2F8D2FE801092F182FEC16FD0654F456
:100E6000902F812F8901292F382F9C2F8D2FE7015B
:100E7000E92EF82E17012C1A3D0A2901401A510AB1
:100E800057FE03C0519441945108310137FE03C00D
:100E90008FEF681A780A759467940217130714F095
:100EA0008FEF01C081E0882E880F9908EC16FD06AF
:100EB000BCF020E0AC14BD041CF4AE01B80102C0CB
:100EC000A801BE0188E596E00E94680C64187508C8
:100ED00077FE04C0080D191D620C731C2196E6CF25
:100EE000DF91CF911F910F91FF90EF90DF90CF9006
:100EF000BF90AF909F908F907F906F905F904F903A
:100F00003F902F9008958F929F92AF92BF920F9330
:100F10001F93CF93DF93CDB7DEB7A1970FB6F894A9
:100F2000DEBF0FBECDBF19A2423008F44AE08E01E9
:100F30000F5D1F4F842E912CA12CB12CA501940183
:100F40000E94021AE62FB901CA0101501109EA30C4
:100F500014F4E05D01C0E95CD801EC93232B242B51
:100F6000252B61F7C8010E949805A1960FB6F89449
:100F7000DEBF0FBECDBFDF91CF911F910F91BF900C
:100F8000AF909F908F900895CF92DF92EF92FF9253
:100F9000CF93DF936B017C016DE284E596E00E94C4
:100FA000860CEC0166277727CB016C197D098E0929
:100FB0009F094AE00E9483078C0F9D1FDF91CF910C
:100FC000FF90EF90DF90CF90089580916F06811190
:100FD0000DC082E080936B0684E080936C061092D3
:100FE0006E0610926D0681E080936F068BE696E0A8
:100FF00008954091D3065091D4062091D1063091A6
:10100000D20642175307B4F49091E8009570E1F3CB
:101010009091E80092FD19C08093F1008091D30671
:101020009091D40601968F739927892B19F48EEF2E
:101030008093E8008091D3069091D4060196909316
:10104000D4068093D30681E0089580E00895DF926E
:10105000EF92FF920F931F93CF93DF93D82E8A01C5
:101060007B01E40EF51EEB01CE15DF0571F0D7FE16
:1010700003C0FE01849101C088810E94F907219676
:101080008111F2CF8FEF9FEF01C0C801DF91CF91A7
:101090001F910F91FF90EF90DF900895615030F015
:1010A0002091F100FC0120830196F8CF289884E676
:1010B00080934C0208950F931F93CF93DF931F9259
:1010C000CDB7DEB782E0898342E450E06AED73E099
:1010D00080E80E9427080E94E507DC0112960D9126
:1010E0001C9113970115110589F0D801ED91FC9120
:1010F0000280F381E02DBE016F5F7F4FC80109952B
:1011000097FD04C0F80100851185ECCF89810F900F
:10111000DF91CF911F910F9108951F920F920FB6FB
:101120000F9211248F939F938091E1009091E100A1
:10113000937F9093E10083FF0FC01092E90091E04C
:101140009093EB001092EC0092E39093ED001092DC
:101150004D0298E09093F00082FF20C093E09093BE
:10116000E9009091F200992319F09AE39093E80036
:1011700090914A02992339F090914A0291509093AC
:101180004A02992389F190914C02992339F0909168
:101190004C02915090934C02992341F184FF10C06E
:1011A0008091E2008E7E81608093E2008091E10078
:1011B0008F7E8093E10080914B028E7E806111C012
:1011C00080FF16C08091E2008E7E80618093E200F5
:1011D0008091E1008E7E8093E10080914B028E7EB3
:1011E000816080934B0204C05D9ACDCF289AD6CF00
:1011F0009F918F910F900FBE0F901F9018951F9287
:101200000F920FB60F921124CF92DF92EF92FF92BE
:101210000F931F932F933F934F935F936F937F93FE
:101220008F939F93AF93BF93EF93FF93CF93DF93EE
:10123000CDB7DEB76C97DEBFCDBF1092E9008091CD
:10124000E80083FFFBC168E0CE0145960E944E088E
:1012500082EF8093E8008D8987FF05C09091E800B8
:1012600090FFFCCF03C09EEF9093E800982F9076FC
:1012700009F0C6C09E894F89588D2F89F88C91112D
:101280000CC0803829F48091CB068093F10002C015
:101290001092F1001092F10045C1913051F481118A
:1012A00041C14130510509F03DC18091CB068D7F90
:1012B0000BC0933061F4811135C14130510509F003
:1012C00031C18091CB0682608093CB062BC19530D3
:1012D00049F48091E80080FFFCCF822F80688093E2
:1012E000E30020C1963009F05EC00B8D1C8D22E01A
:1012F0001092E9001092D4061092D306F21232C076
:101300001092D2061092D1060E945B0899E0BE01AD
:101310006F5F7F4FDB01E92F1D92EA95E9F7998313
:10132000FA8291E09E8390EA98879AEF99872091BC
:10133000D3063091D406275F3F4F3C832B838D83A8
:101340001092E9001092D4061092D3061093D206A0
:101350000093D10649E050E080E00E9427080E94F7
:101360005B08E0C01093D2060093D1060E94E50707
:10137000DC0112960D911C9113970115110509F4CA
:10138000BBC0D801ED91FC910480F581E02DBE0138
:101390006B5E7F4FC8010995009709F0C7C0F8013F
:1013A00000851185EACF973009F445C1983021F4C2
:1013B00081E08093F100B6C0993009F0B3C083702A
:1013C00009F039C1E1E4F1E081E031E096E3208108
:1013D000211109C08EE78093EA001092EA008F89FC
:1013E00080934D029FC08093E9003093EB002191E0
:1013F0002093EC009093ED008F5F873041F7EACFA8
:101400008B8D9C8D1092E9001092D4061092D30619
:101410009093D2068093D106898D811153C08E8915
:101420009D89913A49F4813209F005C147E050E0C5
:1014300064E071E080E0BBC0913209F0FCC083320F
:1014400069F48F89988DA0E0B0E080930C019093AF
:101450000D01A0930E01B0930F0164C0803269F4B6
:101460008091E80082FFFCCF67E084E091E00E9479
:101470004E088BEF8093E80055C0823209F052C0CD
:101480008F8980930B01EEEFFFE7859194918B3F5D
:101490009C4D19F0E0E0F8E002C0EEEFFAE0809138
:1014A000040190910501A0910601B0910701803BD4
:1014B0009440A105B10509F09EC080910B0180FF09
:1014C00079C099C00E94E507FC01028113810115D2
:1014D000110509F4B0C0D801ED91FC910190F081A3
:1014E000E02DBE016B5E7F4FC801099581111AC0C6
:1014F000F80100851185EBCFF1E0FF1609F44EC02D
:10150000F3E0FF1298C08F89882309F44AC0823023
:1015100089F440E860E18EE394E00E94611888233A
:1015200009F489C08EEF8093E80088C01816190668
:10153000CCF381C0813029F440E86BE082E394E091
:10154000ECCF833009F077C00E94E507DC011296EA
:10155000ED90FC9013978E010F5F1F4F6801E1140F
:10156000F10479F0D701ED91FC910680F781E02D2F
:10157000B801C7010995080F111DF701E084F18436
:10158000EECFD8011C92F60101900020E9F73197C7
:10159000BF016C197D0940E0C601BFCF60E274E075
:1015A00002C06CE174E0FB01449150E080E80E94CD
:1015B0002708B8CFEE3F2AE0F20751F080819181F1
:1015C0008737A7E79A0721F09093FF0A8093FE0AD6
:1015D00087E797E791838083809160008093D506A9
:1015E0009BE088E10FB6F894A895809360000FBE49
:1015F0009093600097CF808191818737974709F05A
:1016000091CFA8958091600088618093600080915F
:10161000D50680936000EE3FBAE0FB0739F0809179
:10162000FE0A9091FF0A918380837CCF1092FF0A7B
:101630001092FE0A77CF81E28093EB006C960FB692
:10164000F894DEBF0FBECDBFDF91CF91FF91EF9138
:10165000BF91AF919F918F917F916F915F914F91CA
:101660003F912F911F910F91FF90EF90DF90CF90BE
:101670000F900FBE0F901F9018953FB7F894809170
:10168000CD069091CE06A091CF06B091D00626B59A
:10169000A89B05C02F3F19F00196A11DB11D3FBFAA
:1016A000BA2FA92F982F8827820F911DA11DB11D38
:1016B000BC01CD0142E0660F771F881F991F4A9534
:1016C000D1F708958F929F92AF92BF92CF92DF92FF
:1016D000EF92FF926B017C010E943D0B4B015C017C
:1016E000C114D104E104F104F1F00E943D0BDC01CE
:1016F000CB0188199909AA09BB09883E9340A10525
:10170000B10570F321E0C21AD108E108F10888EEB2
:10171000880E83E0981EA11CB11CC114D104E10401
:10172000F10419F7DDCFFF90EF90DF90CF90BF90DD
:10173000AF909F908F9008951F920F920FB60F92C7
:1017400011242F933F938F939F93AF93BF938091D7
:10175000C7069091C806A091C906B091CA063091FB
:10176000CC0623E0230F2D3720F40196A11DB11DD7
:1017700005C026E8230F0296A11DB11D2093CC06BB
:101780008093C7069093C806A093C906B093CA0673
:101790008091CD069091CE06A091CF06B091D00653
:1017A0000196A11DB11D8093CD069093CE06A09306
:1017B000CF06B093D006BF91AF919F918F913F918B
:1017C0002F910F900FBE0F901F901895CF92DF9220
:1017D000EF92FF920F931F93CF93DF936C017A01E7
:1017E0008B01C0E0D0E0CE15DF0581F0D8016D910E
:1017F0008D01D601ED91FC910190F081E02DC601A3
:101800000995892B11F02196EECF7E01C701DF915A
:10181000CF911F910F91FF90EF90DF90CF9008959F
:101820000895089580E090E008950E94481C2D9A44
:101830000895BC0180E090E00C94620B8FB180951C
:10184000807F669B88601C9B846008950C9483193C
:10185000FC01E40FF11DAF011E161F06C4F5803810
:101860009105ACF597FF02C080E090E0413851054A
:1018700014F040E850E0481BFB0177FD379633E059
:10188000F595E7953A95E1F7F695FE2FEE27F79552
:10189000E795E80FF91FE25BFD4F6770772781E05E
:1018A00090E001C0880F6A95EAF7382F222341F0B3
:1018B000213069F4415058F08081832B8193FACF15
:1018C0008095415020F0908198239193FACF08950C
:1018D00060387105D0F440345105B8F4EFE4F4E019
:1018E00080E1849FD001A0781124A60F4770E40FF7
:1018F000F11D8491A25BBD4F222319F06C91862BC0
:1019000003C080956C9186238C9308952F923F920B
:101910004F925F926F927F928F929F92AF92BF92FF
:10192000CF92DF92EF92FF920F931F93CF93DF93AB
:10193000CDB7DEB729970FB6F894DEBF0FBECDBF87
:101940009A8389836A30A1F4DC0155962C915597CE
:1019500051968D919C915297B8E02B9F800D911DCF
:101960001124E981FA81928B818B108A1786B6C087
:101970006D3009F4B3C029813A8139872887D901AC
:101980001F960D911C91509700381105BCF0E88509
:10199000F9852589422F50E087859089F6E02F9FB1
:1019A000800D911D1124A885B98550969C938E9326
:1019B0001F9756962C9121117BC090C0E885F98520
:1019C00021883288F0E42F1631040CF7A885B985F8
:1019D0005596FC90C801B5E0FB9E800D911D112429
:1019E00018161906A4F6EF2DF0E0FD83EC83C10173
:1019F000F8E0FF9E800D911D1124181619063CF683
:101A0000A885B98554964C9054975396BC91BB8346
:101A1000E5E06E9FB00111249B01295A3B4F3A83A8
:101A20002983E12C8885998504969F838E83E9819B
:101A3000FA817490F5E0EF1201C0712C510188E039
:101A4000682E70FE02C05B8001C0542C511003C090
:101A50002B814216C9F068018C2D801B8F15A0F4D4
:101A60004501882D8A198F1558F4252DA401B6013A
:101A70008E819F810E94680C3FEF831A930AF1CFF9
:101A80008FEFC81AD80AE8CF76946A94AC81BD81EA
:101A9000AA0EBB1E6110D5CFE3940A0F1B1FE9816C
:101AA000FA813196FA83E983F6E0EF12C0CF6FCF67
:101AB0006AEF64039001659F300D112420583F4F59
:101AC000281739075CF4A885B985ED91FC91119729
:101AD0000190F081E02D6AE0CD01099581E090E070
:101AE00029960FB6F894DEBF0FBECDBFDF91CF9120
:101AF0001F910F91FF90EF90DF90CF90BF90AF902C
:101B00009F908F907F906F905F904F903F902F901D
:101B10000895CF93DF9310922A0210922902109217
:101B20002C0210922B0282E090E0909303018093AC
:101B3000020147EF51E08091F5019091F60129E112
:101B4000289FB001299F700D11242CED31E06C5DB0
:101B50007140DB01A20FB31F80E090E0FC01EE0FAB
:101B6000FF1FE40FF51F11821082FC01EA0FFB1F1B
:101B7000E759FE4FE491E901C80FD91FF1E0E111E7
:101B800001C0F0E0F88301968530910539F7465F92
:101B90005F4F2B5F3F4F81E0253F3807D1F681E053
:101BA00090E090932E0280932D02DF91CF910895C3
:101BB000CF93DF93CDB7DEB76A970FB6F894DEBF49
:101BC0000FBECDBF789484B5826084BD84B581603A
:101BD00084BD85B5826085BD85B5816085BD8091F8
:101BE0006E00816080936E00109281008091810070
:101BF0008260809381008091810081608093810068
:101C0000809180008160809380008091910082604B
:101C100080939100809191008160809391008091E8
:101C200090008160809390008091C10084608093D7
:101C3000C1008091C10082608093C1008091C10089
:101C400081608093C1008091C30081608093C30054
:101C50008091C00082608093C0008091C20081604A
:101C60008093C20080917A00846080937A00809192
:101C70007A00826080937A0080917A0081608093FC
:101C80007A0080917A00806880937A0010924D02E9
:101C90001092CB0610924B028091D7008160809306
:101CA000D70080EA8093D80089B5806189BD89B565
:101CB000826089BD09B400FEFDCF61E070E080E084
:101CC00090E00E94620B8091D8008F7C80618093AD
:101CD000D8008091E000807F8093E0008091E10057
:101CE0008E7E8093E1008DE08093E200559A209AE9
:101CF00081EC80937C0085B1806F85B984B1877E4B
:101D000084B984B1876E84B95E9A5F988AB1806D18
:101D10008AB9769A6E9881B3806F81BB899880B3B7
:101D20008D7080BB80E58CBD81E08DBD85E090E04D
:101D30000E94190C5F9A85E090E00E94190C5E9851
:101D40005C98ECE5F1E084918EBD00000DB407FED7
:101D5000FDCF319621E0E936F207A9F75C9A81E8D8
:101D6000809364008091650081608093650080E0CD
:101D70000E9482060E941E0C87FF24C05C9885EAA0
:101D80008EBD00000DB407FEFDCF5C9A2E982F98F3
:101D90002D988091640080628093640081E083BF0D
:101DA000889513BEFCCF2D980E941E0C8478843831
:101DB00071F00E941E0C8471843131F188EC90E046
:101DC0000E94190C0E941E0C82FDEDCF3AC00E94A9
:101DD000170C88EC90E00E94190C2F9882E090E09C
:101DE0000E9483198F3F29F06FEF82E090E00E94FC
:101DF0008B1984EF91E00E94190C2F9A0E941E0CFF
:101E000084788438D9F3D5CF0E94170C88EC90E001
:101E10000E94190C2E9882E090E00E94831988237A
:101E200029F060E082E090E00E948B1984EF91E05D
:101E30000E94190C2E9A0E941E0C84718431D9F3D1
:101E4000BDCF0E94170C82E090E00E94260C8823F0
:101E500019F03E9A3F9A02C03E983F9881E090E088
:101E60000E94260C382F3470932E81FF87C03111C9
:101E70002E9800EF1FEFE8E0EE2EF12C0E941E0CD2
:101E800086FF05C02E9A2F9A0E94170C77C09920C2
:101E900029F00430110511F42E9A2F9881E00E9448
:101EA0008206980117FF04C022273327201B310B1D
:101EB00027703327C80117FD079673E0959587951E
:101EC0007A95E1F717FF05C00197A701421B530B55
:101ED0009A01AC015695542F442757954795425B7C
:101EE0005D4FA0E0B0E03701621A730A8F3F6FEFD9
:101EF00096074CF40196A85ABF4F40585F4FA03B3D
:101F0000B105A1F720C05A0174E9A70EB11C6A01FE
:101F100060E070E08F3FEFEF9E0711F40C94FF1725
:101F2000FB01EA0FFB1FE455FF4FE491F0E02F01A6
:101F3000022E01C0440C0A94EAF7F601848848286E
:101F4000448A0C94FF1780E00E9482068FE090E0A4
:101F50000E94190C0F5F1F4F0931110509F08ECF38
:101F6000992011F02F9A2D9880E991E00E94190C88
:101F70000E94170C84E596E00E94961882E390E098
:101F80000E94190C0E941E0C8111F8CF81E28093EF
:101F90005F06809164008E7F8093640080917A0058
:101FA000806480937A0080917A0086FDFCCF009156
:101FB0007800109179000E943D0B20E030E09801FC
:101FC00011270027600F711F821F931F6115710574
:101FD0008105910511F00E947A1980916400816059
:101FE000809364009E01295F3F4F38872F838FB70E
:101FF000F8944091C7065091C8066091C906709147
:10200000CA068FBF80916006942F981B809161064D
:10201000882329F09093620610926106E6C720910A
:102020005F06921748F49F5F921708F0DEC781E0C1
:1020300083BF889513BED9C7FF24F394F09261063D
:102040004093600620915B0630915C062F5F3F4F06
:1020500030935C0620935B06EEE4F2E081118FEF93
:10206000002481938193819381930394D1F71092FB
:1020700066061092650610926406109263068091BF
:102080005D0680935E060E941E0C80935D060091A3
:102090002D0210912E020430110509F44FC744F4AB
:1020A0000115110509F450C50130110589F09AC7D1
:1020B0000530110509F4E4C50630110509F092C791
:1020C0003CEDC32E31E0D32E47E1E42EF12CD8C4F1
:1020D00080E80E949106882319F180910201909175
:1020E00003018230910589F480912B0290912C029A
:1020F000019797FD05C090932C0280932B0210C08E
:1021000010922C0210922B020BC0892B29F41093F1
:1021100003010093020104C0109203011092020116
:1021200080E10E949106882331F180910201909113
:1021300003018230910591F480912B0290912C0241
:102140000196853091052CF490932C0280932B02FC
:1021500012C010922C0210922B020DC0892B39F460
:1021600081E090E0909303018093020104C01092FB
:1021700003011092020180E20E9491068823B1F1CE
:1021800080910201909103018230910561F4809168
:10219000290290912A02019797FF10C010922A02FB
:1021A0001092290223C08230910568F482E090E009
:1021B000909303018093020184E090E090932A02BF
:1021C0008093290213C0039789F4809100019091B4
:1021D0000101892B39F481E090E090930101809313
:1021E000000104C0109201011092000180E40E94DD
:1021F0009106882309F43FC0809102019091030168
:102200008230910529F58091290290912A02019648
:10221000853091052CF490932A02809329022BC0DB
:1022200084E090E090932A028093290280912B020F
:1022300090912C0203972CF410920301109202014A
:102240001AC081E090E0909303018093020113C0D3
:10225000039789F48091000190910101892B39F451
:1022600081E090E0909301018093000104C01092FE
:1022700001011092000188E00E949106882309F470
:1022800081C0809102019091030182309105E1F4B7
:1022900040912B0250912C022091290230912A0268
:1022A00065E0649FF001659FF00D1124E20FF31FBC
:1022B000EE0FFF1FE950FE4F20813181232B09F0E3
:1022C00061C0918380835EC0009789F483E090E0D1
:1022D000909303018093020181E090E090930101CB
:1022E0008093000166E070E087E491E011C08130E6
:1022F000910589F423E030E030930301209302013B
:10230000909301018093000165E070E08EE491E01C
:102310000E94300637C00397A9F58091520690912C
:1023200053060091000110910101892BA1F067E48F
:1023300071E080914E0690914F060E94561C892BA9
:1023400051F4012B19F40E94890D1CC01092030155
:102350001092020117C0012B79F410922A021092F8
:10236000290210922C0210922B0285E090E09093AB
:102370002E0280932D0206C081E090E0909303012D
:102380008093020184E00E949106882311F18091DC
:102390000201909103018230910541F520912B02B9
:1023A00030912C028091290290912A0245E0429FAF
:1023B000F001439FF00D1124E80FF91FEE0FFF1FEE
:1023C000E950FE4F808191810197029750F411826C
:1023D00010824CED51E0588F4F8B6A0108E110E0FC
:1023E00023C081E090E091838083F3CF039789F746
:1023F0008091520690915306892B79F067E471E041
:1024000080914E0690914F060E94561C892B29F40C
:102410001092030110920201DCCF81E090E09093D2
:10242000030180930201D5CF1A8219821C821B827C
:102430001E821D8220E030E080E090E040E050E02D
:10244000F601E40FF51F6081662371F001964430B8
:102450005105D9F4F901EE0FFF1FA1E0B0E0AC0F78
:10246000BD1FEA0FFB1F0BC0009769F0F901EE0FCB
:10247000FF1F61E070E06C0F7D1FE60FF71F918377
:1024800080832F5F3F4F80E090E04F5F5F4F45308C
:102490005105B1F6EAE1F0E0F0936406E0936306DB
:1024A00010936606009365069E012F5F3F4F7901EA
:1024B0005901D7016D917D917D01161617063CF4E7
:1024C000072E000C880B990B4AE00E948307EF81CE
:1024D000F885EE15FF0569F7085F1F4FF5E0CF0E91
:1024E000D11C0034110509F09FCF7CEDC72E71E09F
:1024F000D72E0EE210E01A8219821C821B821E82E5
:102500001D82F60120E030E080E090E040E050E005
:102510006081662329F001964430510571F402C0B0
:10252000009749F0D901AA0FBB1FAA0DBB1D8D93BF
:102530009C932F5F3F4F80E090E04F5F5F4F359659
:102540004530510529F74501E12CF12C1093640623
:1025500000936306F0926606E0926506D4016D91E1
:102560007D914D01161617063CF4072E000C880BC2
:10257000990B4AE00E948307B8E0EB0EF11CE8E1FA
:10258000EE16F10419F7085F1F4FFFEFCF1ADF0AAD
:102590000635110509F0AFCF0DE210E021E048E269
:1025A00068E170E0C8010E949E060F5F1F4F05356D
:1025B0001105A1F707E110E0E12CF12C21E043E146
:1025C000B8018AE190E00E94280C680125E1C20E62
:1025D000D11C21E048E160E070E0C6010E949E0647
:1025E000E114F10471F020E048E268E170E0C60116
:1025F0000E949E0620E048E2B8018DE290E00E9431
:10260000280C3FEFE31AF30A085F1F4F46E0E41679
:10261000F104A1F667EF71E07E876D874B0109E158
:1026200010E0280174E0470E511CEEE2EE2EF12C72
:10263000C12CD12CF401EC0DFD1D808191818130E4
:102640009105A1F0029711F55701370185E0680E59
:10265000711C6A147B04D1F020E045E0B801C5018B
:102660000E949E069FEFA91AB90AF3CF9201570163
:10267000A4E0AA0EB11CA501B801C7010E94FB0687
:102680009801A501B201C7010E94FB06B2E0CB0E82
:10269000D11CE8E0EE0EF11CFAE0CF16D10451F6A1
:1026A0002AE0820E911C085F1F4F0134110509F0CA
:1026B000B8CF40910201509103015A8F498F4230A7
:1026C0005105B9F084E690E0909364068093630628
:1026D00080E290E09093660680936506698D7A8D1E
:1026E000672B09F0D6C081E08093680610926706D8
:1026F000D0C0E0902902F0902A0253E0EE0CFF1CBB
:102700005A95E1F7C701C0969A87898760902B0296
:1027100070902C0263E0660C771C6A95E1F7D30198
:102720005B96BA8BA98BA301425E5F4F20E0BC0190
:1027300088E596E00E94680CA301485E5F4F20E0A8
:1027400069857A8588E596E00E94680CB7016D5C22
:102750007F4F20E049895A8988E596E00E94680CFD
:10276000B701635D7F4F20E049895A8988E596E08B
:102770000E94680CE1E0F0E0FC8BEB8B412C512CCB
:1027800003E010E02AEF3FEF3E8B2D8B7EEF272EEC
:1027900033243A945FEF451A550A6B897C896E5F42
:1027A0007F4F7C8B6B8B260E371E420170E3870EAA
:1027B000911C8E0C9F1C20E0A988BA88A00EB11E27
:1027C000A501B40188E596E00E94680C6701C41871
:1027D000D50880E3C80ED11C20E0A501B60188E52C
:1027E00096E00E94680C20E0A988BA88A01AB10A75
:1027F000A501B40188E596E00E94680C20E0A501DF
:10280000B60188E596E00E94680C62019BE1C90E62
:10281000D11CC60CD71C20E0A60189849A84800EA6
:10282000911EB40188E596E00E94680C20E0A601A4
:10283000C984DA84C01AD10AB60188E596E00E94FC
:10284000680C5301A418B508ABE1AA0EB11C20E036
:10285000A501B40188E596E00E94680C20E0A5017E
:10286000B60188E596E00E94680C401651060CF00F
:1028700029CF3FEF2316330609F48CCF01501109FD
:102880004D895E894E5F5F4F5E8B4D8B240E351EEA
:1028900081CF84E591E00E949C0680910201909195
:1028A0000301009729F41092680621E0209367063F
:1028B00024E630E0309364062093630620E330E0A2
:1028C0003093660620936506019729F481E0809392
:1028D0006806109267068AE591E00E949C062091A6
:1028E0000201309103012130310529F4109268066C
:1028F00081E080936706EF89F88D80E090E0AD85F8
:10290000BE85A80FB91F4D915C914230510521F44D
:102910004081411104C024C04081411121C0029670
:1029200031968A30910559F7EF89F88D3596F88FF1
:10293000EF8B4D855E85465F5F4F5E874D874952C1
:102940005240C9F686E090E090932E0280932D02CB
:10295000E091F501F091F601EF5CFD4F81E080839D
:102960002330310509F03EC320E340E668E070E023
:1029700080E190E00E94C90601E110E020E04EE213
:1029800069E070E0C8010E949E060F5F1F4F0F367E
:102990001105A1F782E390E09093640680936306AB
:1029A0008BE090E090936606809365064091520616
:1029B0005091530660914E0670914F0684E596E063
:1029C0000E94E60B80E290E0909364068093630699
:1029D00090936606809365068091000190910101B5
:1029E000892B29F481E080936806109267068FE5B1
:1029F00091E00E949C068091000190910101009756
:102A000029F41092680621E02093670620E530E063
:102A1000309364062093630620E230E0309366062C
:102A200020936506019729F481E08093680610924F
:102A3000670683E691E00E949C06809100019091D8
:102A40000101019709F0CEC21092680681E08093DF
:102A50006706C8C2D4018D914D01F80138965F0117
:102A6000811112C0850104351105A1F7F5E0CF0EE3
:102A7000D11C28E0E20EF11C3FE3E316F10481F0E3
:102A800046010CE210E0E6CFA016B10659F321E0B2
:102A900048E0B701C8010E949E060F5F1F4FF4CFA8
:102AA00021E040E860E070E080E090E00E94280CC7
:102AB00082E290E0909364068093630682E090E067
:102AC000909366068093650686E691E00E949C06D8
:102AD00021E040E86AE070E080E090E00E94280C8D
:102AE00087E090E090936406809363068CE090E02A
:102AF000909366068093650681E791E00E949C06AC
:102B000088E00E949106882309F46CC2E091F501E7
:102B1000F091F60125E030E0CF01B9010E94331AAF
:102B200090932A0280932902AF01481B590BCA01D6
:102B3000B9010E94331A70932C0260932B023093D8
:102B40002E0220932D024EC28CE090E090936406FA
:102B500080936306909366068093650682E0809377
:102B6000690685E891E00E949C06F09269060BE2F6
:102B700010E010936406009363062CE2E22EF12C21
:102B8000F0926606E09265068FE891E00E949C064E
:102B9000109364060093630608E310E01093660642
:102BA0000093650687E991E00E949C0680912F02C0
:102BB00090913002009759F465E270E070936406DA
:102BC00060936306F0926606E09265060CC001977A
:102BD00071F485E290E0909364068093630610930D
:102BE0006606009365068DE991E00E949C0680E1EF
:102BF0000E949106882389F080912F0290913002E3
:102C00000196823091052CF49093300280932F022C
:102C100004C01092300210922F0280E80E949106A8
:102C2000882369F080912F0290913002019797FFDD
:102C300002C081E090E09093300280932F0288E000
:102C40000E949106882309F4CDC180912F029091B2
:102C50003002009759F410922A0210922902109221
:102C60002C0210922B0285E090E005C0019709F03C
:102C7000B9C184E090E090932E0280932D02B2C1FE
:102C8000A1E3B2E0BA8BA98B212C312C2101239432
:102C9000E9E1F0E0FC8BEB8B02E010E098012150C1
:102CA0003109388F2F8BA8014C5F5F4F5A8F498FA6
:102CB00069897A897E8B6D8B2D863E864F86588AF0
:102CC00080E1A82EB12C612C712CC3010296909347
:102CD0006406809363068F89988D9093660680932F
:102CE00065064AE06D857E858F8598890E948307F9
:102CF00073019FE0E90EF11C6301A6E1CA0ED11C2D
:102D0000CE14DF0459F021E047E06F89788DC701C8
:102D10000E949E06BFEFEB1AFB0AF2CFED89FE89F7
:102D20008191FE8BED8B811113C0298D3A8D73013A
:102D3000F4E1EF0EF11CA701B801C5010E94FB06EA
:102D4000298D3A8DA501B801C7010E94FB0635C047
:102D50001A870987C12CD12C93012B5E3F4F3C87EA
:102D60002B8775018B889C888C0C9D1C39E2831AFB
:102D70009108F401EE0DFF1DE759FE4FE491EE239B
:102D800041F020E049855A85B70188E596E00E9428
:102D9000680C4FEFE41AF40A6B857C856E157F058D
:102DA00041F775E0C70ED11C89859A8501969A87EF
:102DB000898799E1C916D104A1F6A9E16A0E711CAF
:102DC0002D853E854F8558892F5F3F4F4F4F5F4F71
:102DD0002D873E874F87588B39E1A30EB11C4DE7F5
:102DE0006416710409F071CF035F1F4F6B897C89F2
:102DF00063587F4F7C8B6B8B75E0270E311C411C19
:102E0000511C89899A8905969A8B898B03341105FF
:102E100009F044CFE0902B02F0902C02009129029F
:102E200010912A028DE08E9DB0018F9D700D1124AE
:102E300029E049E189E1A82FA09FC001A19F900D41
:102E400011240E94C90680E80E949106882381F01F
:102E5000B1E0EB1AF108F7FC05C0F0922C02E09209
:102E60002B0206C084E090E090932C0280932B020A
:102E700080E10E949106882389F080912B02909135
:102E80002C020196853091052CF490932C028093AE
:102E90002B0204C010922C0210922B0280E20E949E
:102EA0009106882379F00150110917FD05C0109390
:102EB0002A020093290206C084E090E090932A023F
:102EC0008093290280E40E949106882389F08091F2
:102ED000290290912A020196853091052CF4909355
:102EE0002A028093290204C010922A021092290219
:102EF00088E00E9491068823B1F080912B02909186
:102F00002C0245E0489F9001499F300D112480918B
:102F1000290290912A02820F931F9093F6018093C9
:102F2000F5010E94890D84E00E949106882309F42E
:102F300059C010922E0210922D0254C0E5E2F0E02A
:102F4000F0936406E093630610926606109265069D
:102F50008FE991E00E949C0626E130E03093640600
:102F6000209363064AE050E050936606409365065E
:102F700089EA91E00E949C0668E270E07093640622
:102F80006093630684E190E0909366068093650603
:102F900088EB91E00E949C06A6E1B0E0B093640645
:102FA000A0936306E8E2F0E0F0936606E09365061E
:102FB00081EC91E00E949C068FE190E09093640682
:102FC0008093630682E390E09093660680936506A3
:102FD00080ED91E00E949C0688E00E94910681119C
:102FE000A8CFA1CF80E00E94820680E090E0892BEC
:102FF00011F40C94F70F0E9400000C94F70F2115A8
:10300000310591F0FB01EA0FFB1FE455FF4FE491FE
:10301000F0E02F01062C02C0559447940A94E2F781
:10302000F5018080482840826F5F7F4FFFEFAF1A25
:10303000BF0AEFEFCE1ADE0A6835710511F00C9465
:103040008A0F0C947A0FE7E7F6E01382128288EE7B
:1030500093E0A0E0B0E084839583A683B7838EE1FC
:1030600091E0918380838FEF9FEF95878487E4E5DC
:10307000F6E0138212821186128680E18387108621
:103080001782158680E391E0918380838EE391E03F
:1030900095838483108A1786128A118A81E0838B34
:1030A000148A858B168AEEE4F6E011821082138270
:1030B00012821582148260E070E08EE991E00C9437
:1030C0003006DF92EF92FF920F931F93CF93DF931F
:1030D000D82EF92EE42E062F10E0C8010196880F95
:1030E0000E94F90783E00E94F907CD2DDF2D0C0F18
:1030F0001D1FC017D10789F0E7FE03C0FE018491B0
:1031000001C088810E94F907F82E80E00E94F9072B
:103110008F2121968111EDCF01C081E0DF91CF9108
:103120001F910F91FF90EF90DF9008950F931F93E1
:10313000CF93DF938C0181E090E00E94260C80FF0A
:1031400032C08AE090E00E94260C9FEF980F9E3FCD
:1031500050F522E330E0D80150963C932E931F9710
:1031600028E330E052963C932E935197CBE0D0E089
:10317000D801ED91FC910190F081E02D682FC801FC
:103180000995CE010E94260C2196C131D10581F707
:1031900080E00E94820688EE93E0DF91CF911F913C
:1031A0000F910C94190CDF91CF911F910F910895FD
:1031B00004970C94961880914E0690914F060C94AB
:1031C000F91A8F929F92AF92BF92CF92DF92EF92B5
:1031D000FF92CF93DF93EC01688179818A819B8193
:1031E000611571058105910521F464E279ED8BE5A6
:1031F00097E02DE133EF41E050E00E949919490139
:103200005A019B01AC01A7EAB1E40E94B8196B0115
:103210007C01ACEEB4EFA50194010E94C619DC015B
:10322000CB018C0D9D1DAE1DBF1DB7FF03C00197C7
:10323000A109B04888839983AA83BB83BC01CD01CF
:103240009F77DF91CF91FF90EF90DF90CF90BF906D
:10325000AF909F908F9008958F929F92AF92BF9260
:10326000CF92DF92EF92FF92609110017091110165
:1032700080911201909113016115710581059105ED
:1032800021F464E279ED8BE597E02DE133EF41E045
:1032900050E00E94991949015A019B01AC01A7EA2B
:1032A000B1E40E94B8196B017C01ACEEB4EFA5014A
:1032B00094010E94C619DC01CB018C0D9D1DAE1D31
:1032C000BF1DB7FF03C00197A109B048809310014B
:1032D00090931101A0931201B0931301BC01CD0191
:1032E0009F77FF90EF90DF90CF90BF90AF909F902F
:1032F0008F900895609310017093110180931201D3
:10330000909313010895F999FECF92BD81BDF89A6B
:10331000992780B50895262FF999FECF1FBA92BD3F
:1033200081BD20BD0FB6F894FA9AF99A0FBE0196A6
:103330000895052E97FB1EF400940E94B01957FDC6
:1033400007D00E94021A07FC03D04EF40C94B01967
:1033500050954095309521953F4F4F4F5F4F0895C1
:1033600090958095709561957F4F8F4F9F4F0895F1
:103370000E94241AA59F900DB49F900DA49F800DCC
:10338000911D11240895B7FF0C94B8190E94B81923
:10339000821B930B08952F923F924F925F926F92F0
:1033A0007F928F929F92AF92BF92CF92DF92EF92D5
:1033B000FF920F931F93CF93DF93CDB7DEB7CA1B56
:1033C000DB0B0FB6F894DEBF0FBECDBF09942A8881
:1033D000398848885F846E847D848C849B84AA8429
:1033E000B984C884DF80EE80FD800C811B81AA81B6
:1033F000B981CE0FD11D0FB6F894DEBF0FBECDBF81
:10340000ED010895A1E21A2EAA1BBB1BFD010DC000
:10341000AA1FBB1FEE1FFF1FA217B307E407F50784
:1034200020F0A21BB30BE40BF50B661F771F881F60
:10343000991F1A9469F760957095809590959B01F6
:10344000AC01BD01CF010895A29FB001B39FC0019F
:10345000A39F700D811D1124911DB29F700D811DC0
:103460001124911D089597FB072E16F4009407D0A0
:1034700077FD09D00E94471A07FC05D03EF49095CD
:1034800081959F4F0895709561957F4F0895AA1B70
:10349000BB1B51E107C0AA1FBB1FA617B70710F03F
:1034A000A61BB70B881F991F5A95A9F78095909571
:1034B000BC01CD010895EE0FFF1F0590F491E02DA2
:1034C00009940F931F93CF93DF938230910510F4EB
:1034D00082E090E0E091D806F091D90620E030E05B
:1034E000A0E0B0E0309719F1408151810281138151
:1034F00048175907C8F08417950769F4109731F0F9
:1035000012960C93129713961C9327C00093D8061B
:103510001093D90622C02115310519F0421753071F
:1035200018F49A01BD01EF01DF01F801DBCF21158D
:103530003105F9F0281B390B2430310580F48A81DC
:103540009B816115710521F0FB019383828304C087
:103550009093D9068093D806FE01329644C0FE01AE
:10356000E20FF31F8193919322503109398328830D
:103570003AC02091D6063091D706232B41F42091F2
:103580001601309117013093D7062093D60620916B
:103590001401309115012115310541F42DB73EB7C5
:1035A0004091180150911901241B350BE091D6066A
:1035B000F091D706E217F307A0F42E1B3F0B281754
:1035C000390778F0AC014E5F5F4F2417350748F09C
:1035D0004E0F5F1F5093D7064093D6068193919369
:1035E00002C0E0E0F0E0CF01DF91CF911F910F9199
:1035F0000895CF93DF93009709F481C0FC013297BF
:1036000013821282A091D806B091D906109781F446
:1036100020813181820F931F2091D6063091D706E9
:103620002817390751F5F093D706E093D60667C0FF
:10363000ED0120E030E0CE17DF0740F44A815B81E6
:103640009E0141155105F1F0EA01F5CFD383C28304
:1036500040815181840F951FC817D90759F488817B
:103660009981840F951F0296918380838A819B8123
:10367000938382832115310529F4F093D906E093D1
:10368000D8063DC0E901FB83EA8349915991C40FF3
:10369000D51FEC17FD0761F480819181840F951F80
:1036A0000296E90199838883828193819B838A832F
:1036B000E0E0F0E012968D919C911397009719F03D
:1036C000FD01DC01F7CF8D919C9111979D012E5F3B
:1036D0003F4F820F931F2091D6063091D7062817AF
:1036E000390769F4309729F41092D9061092D80658
:1036F00002C013821282B093D706A093D606DF9140
:10370000CF910895A0E0B0E0E8E8FBE10C94CF1978
:10371000EC01009721F4CB010E94611AB4C0FC01B6
:10372000E60FF71F9C0122503109E217F30708F456
:10373000A8C0D9010D911C91119706171707B0F079
:103740000530110508F49BC0C80104978617970738
:1037500008F495C002501109061B170B0193119331
:103760006D937C93CF010E94F91A89C05B01A01A66
:10377000B10A4C01800E911EA091D806B091D906D5
:10378000612C712CE12CF12C109709F446C08D911D
:103790009C911197A815B905B1F56C0142E0C40ED2
:1037A000D11CCA14DB0478F14C018A189B0864010F
:1037B00042E0C40ED11C1296BC9012971396AC91A5
:1037C000B5E0CB16D10440F0B282A383918280820F
:1037D000D9016D937C9309C00E5F1F4F800F911F1D
:1037E000F90191838083EB2DFA2FE114F10431F07C
:1037F000D7011396FC93EE93129741C0F093D9062C
:10380000E093D8063CC06816790608F43C017D01B7
:1038100012960D90BC91A02DB7CF8091D6069091B5
:10382000D70688169906E1F466167706C8F48091E3
:10383000140190911501009741F48DB79EB7409106
:10384000180150911901841B950BE817F907C8F46A
:10385000F093D706E093D606F901718360830FC019
:10386000CB010E94611A7C01009759F0A801BE01AA
:103870000E944D1CCE010E94F91AC70104C0CE015E
:1038800002C080E090E0CDB7DEB7EEE00C94EB191B
:1038900081E090E0F8940C94661CFB01DC0102C00E
:1038A00001900D9241505040D8F70895FB01DC0182
:1038B0008D91019080190110D9F3990B0895FB01A6
:1038C000DC0101900D920020E1F7089514E0CDEAAB
:1038D000D4E004C0FE010E945B1A2196CE3AD107C3
:0638E000C9F7F894FFCFC8
:1038E6000100020000E1000000000000FFFFFFFFF2
:1038F600010000000000DA06800000000000170545
:10390600AA0538052D057E053C055A050000000070
:10391600860CE60B120C110C9618FCFF0000D8184A
:1039260000C1808100000052657365743F005175C7
:1039360069743F0052657365740051756974005966
:103946006573004E6F0057454C4C20444F4E452141
:10395600005072657373204120746F20636F6E741C
:10396600696E756500504943524F53535F6100506D
:10397600757A7A6C65730041626F75740010005039
:103986006963726F73735F61006279204C756B6552
:103996002044617669657300406C65666973687971
:1039A600005370656369616C205468616E6B7300C7
:0C39B600546F6D20262054697463680073
:00000001FF
